{
  "contractName": "ERC721Enumerable",
  "abi": [
    {
      "anonymous": false,
      "inputs": [
        {
          "indexed": true,
          "internalType": "address",
          "name": "owner",
          "type": "address"
        },
        {
          "indexed": true,
          "internalType": "address",
          "name": "approved",
          "type": "address"
        },
        {
          "indexed": true,
          "internalType": "uint256",
          "name": "tokenId",
          "type": "uint256"
        }
      ],
      "name": "Approval",
      "type": "event"
    },
    {
      "anonymous": false,
      "inputs": [
        {
          "indexed": true,
          "internalType": "address",
          "name": "from",
          "type": "address"
        },
        {
          "indexed": true,
          "internalType": "address",
          "name": "to",
          "type": "address"
        },
        {
          "indexed": true,
          "internalType": "uint256",
          "name": "tokenId",
          "type": "uint256"
        }
      ],
      "name": "Transfer",
      "type": "event"
    },
    {
      "inputs": [
        {
          "internalType": "address",
          "name": "_to",
          "type": "address"
        },
        {
          "internalType": "uint256",
          "name": "tokenId",
          "type": "uint256"
        }
      ],
      "name": "approve",
      "outputs": [],
      "stateMutability": "nonpayable",
      "type": "function"
    },
    {
      "inputs": [
        {
          "internalType": "address",
          "name": "_owner",
          "type": "address"
        }
      ],
      "name": "balanceOf",
      "outputs": [
        {
          "internalType": "uint256",
          "name": "",
          "type": "uint256"
        }
      ],
      "stateMutability": "view",
      "type": "function"
    },
    {
      "inputs": [
        {
          "internalType": "uint256",
          "name": "_tokenId",
          "type": "uint256"
        }
      ],
      "name": "ownerOf",
      "outputs": [
        {
          "internalType": "address",
          "name": "",
          "type": "address"
        }
      ],
      "stateMutability": "view",
      "type": "function"
    },
    {
      "inputs": [],
      "name": "totalSupply",
      "outputs": [
        {
          "internalType": "uint256",
          "name": "",
          "type": "uint256"
        }
      ],
      "stateMutability": "view",
      "type": "function"
    },
    {
      "inputs": [
        {
          "internalType": "uint256",
          "name": "index",
          "type": "uint256"
        }
      ],
      "name": "tokenByIndex",
      "outputs": [
        {
          "internalType": "uint256",
          "name": "",
          "type": "uint256"
        }
      ],
      "stateMutability": "view",
      "type": "function"
    },
    {
      "inputs": [
        {
          "internalType": "address",
          "name": "owner",
          "type": "address"
        },
        {
          "internalType": "uint256",
          "name": "index",
          "type": "uint256"
        }
      ],
      "name": "tokenOfOwnerByIndex",
      "outputs": [
        {
          "internalType": "uint256",
          "name": "",
          "type": "uint256"
        }
      ],
      "stateMutability": "view",
      "type": "function"
    }
  ],
  "bytecode": "0x608060405234801561001057600080fd5b50610b7b806100206000396000f3fe608060405234801561001057600080fd5b50600436106100625760003560e01c8063095ea7b31461006757806318160ddd146100835780632f745c59146100a15780634f6ccce7146100d15780636352211e1461010157806370a0823114610131575b600080fd5b610081600480360381019061007c9190610705565b610161565b005b61008b61036e565b6040516100989190610754565b60405180910390f35b6100bb60048036038101906100b69190610705565b61037b565b6040516100c89190610754565b60405180910390f35b6100eb60048036038101906100e6919061076f565b61042b565b6040516100f89190610754565b60405180910390f35b61011b6004803603810190610116919061076f565b610503565b60405161012891906107ab565b60405180910390f35b61014b600480360381019061014691906107c6565b6105b4565b6040516101589190610754565b60405180910390f35b60003073ffffffffffffffffffffffffffffffffffffffff16636352211e836040518263ffffffff1660e01b815260040161019c9190610754565b602060405180830381865afa1580156101b9573d6000803e3d6000fd5b505050506040513d601f19601f820116820180604052508101906101dd9190610808565b90508073ffffffffffffffffffffffffffffffffffffffff168373ffffffffffffffffffffffffffffffffffffffff16141561024e576040517f08c379a0000000000000000000000000000000000000000000000000000000008152600401610245906108b8565b60405180910390fd5b8073ffffffffffffffffffffffffffffffffffffffff163373ffffffffffffffffffffffffffffffffffffffff16146102bc576040517f08c379a00000000000000000000000000000000000000000000000000000000081526004016102b39061094a565b60405180910390fd5b826002600084815260200190815260200160002060006101000a81548173ffffffffffffffffffffffffffffffffffffffff021916908373ffffffffffffffffffffffffffffffffffffffff160217905550818373ffffffffffffffffffffffffffffffffffffffff168273ffffffffffffffffffffffffffffffffffffffff167f8c5be1e5ebec7d5bd14f71427d1e84f3dd0314c0f7b2291e5b200ac8c7c3b92560405160405180910390a4505050565b6000600380549050905090565b6000610386836105b4565b82106103c7576040517f08c379a00000000000000000000000000000000000000000000000000000000081526004016103be906109b6565b60405180910390fd5b600560008473ffffffffffffffffffffffffffffffffffffffff1673ffffffffffffffffffffffffffffffffffffffff1681526020019081526020016000208281548110610418576104176109d6565b5b9060005260206000200154905092915050565b60003073ffffffffffffffffffffffffffffffffffffffff166318160ddd6040518163ffffffff1660e01b8152600401602060405180830381865afa158015610478573d6000803e3d6000fd5b505050506040513d601f19601f8201168201806040525081019061049c9190610a1a565b82106104dd576040517f08c379a00000000000000000000000000000000000000000000000000000000081526004016104d490610a93565b60405180910390fd5b600382815481106104f1576104f06109d6565b5b90600052602060002001549050919050565b60008060008084815260200190815260200160002060009054906101000a900473ffffffffffffffffffffffffffffffffffffffff169050600073ffffffffffffffffffffffffffffffffffffffff168173ffffffffffffffffffffffffffffffffffffffff1614156105ab576040517f08c379a00000000000000000000000000000000000000000000000000000000081526004016105a290610b25565b60405180910390fd5b80915050919050565b60008073ffffffffffffffffffffffffffffffffffffffff168273ffffffffffffffffffffffffffffffffffffffff161415610625576040517f08c379a000000000000000000000000000000000000000000000000000000000815260040161061c90610b25565b60405180910390fd5b600160008373ffffffffffffffffffffffffffffffffffffffff1673ffffffffffffffffffffffffffffffffffffffff168152602001908152602001600020549050919050565b600080fd5b600073ffffffffffffffffffffffffffffffffffffffff82169050919050565b600061069c82610671565b9050919050565b6106ac81610691565b81146106b757600080fd5b50565b6000813590506106c9816106a3565b92915050565b6000819050919050565b6106e2816106cf565b81146106ed57600080fd5b50565b6000813590506106ff816106d9565b92915050565b6000806040838503121561071c5761071b61066c565b5b600061072a858286016106ba565b925050602061073b858286016106f0565b9150509250929050565b61074e816106cf565b82525050565b60006020820190506107696000830184610745565b92915050565b6000602082840312156107855761078461066c565b5b6000610793848285016106f0565b91505092915050565b6107a581610691565b82525050565b60006020820190506107c0600083018461079c565b92915050565b6000602082840312156107dc576107db61066c565b5b60006107ea848285016106ba565b91505092915050565b600081519050610802816106a3565b92915050565b60006020828403121561081e5761081d61066c565b5b600061082c848285016107f3565b91505092915050565b600082825260208201905092915050565b7f4552524f52202d20617070726f76616c20746f2063757272656e74206f776e6560008201527f7200000000000000000000000000000000000000000000000000000000000000602082015250565b60006108a2602183610835565b91506108ad82610846565b604082019050919050565b600060208201905081810360008301526108d181610895565b9050919050565b7f43757272656e742063616c6c6572206973206e6f7420746865206f776e65722060008201527f6f662074686520746f6b656e0000000000000000000000000000000000000000602082015250565b6000610934602c83610835565b915061093f826108d8565b604082019050919050565b6000602082019050818103600083015261096381610927565b9050919050565b7f6f776e657220696e646578206973206f7574206f6620626f756e642100000000600082015250565b60006109a0601c83610835565b91506109ab8261096a565b602082019050919050565b600060208201905081810360008301526109cf81610993565b9050919050565b7f4e487b7100000000000000000000000000000000000000000000000000000000600052603260045260246000fd5b600081519050610a14816106d9565b92915050565b600060208284031215610a3057610a2f61066c565b5b6000610a3e84828501610a05565b91505092915050565b7f676c6f62616c20696e646578206973206f7574206f6620626f756e6421000000600082015250565b6000610a7d601d83610835565b9150610a8882610a47565b602082019050919050565b60006020820190508181036000830152610aac81610a70565b9050919050565b7f6f776e657220717565727920666f72206e6f6e2d6578697374656e7420746f6b60008201527f656e000000000000000000000000000000000000000000000000000000000000602082015250565b6000610b0f602283610835565b9150610b1a82610ab3565b604082019050919050565b60006020820190508181036000830152610b3e81610b02565b905091905056fea2646970667358221220abcd2d79db812f828ffb4b150b120dd939fc11850ba2bd97a3a225e0f3bb3b0664736f6c634300080c0033",
  "immutableReferences": {},
  "source": "// SPDX-License-Identifier: MIT\r\npragma solidity ^0.8.0;\r\n\r\nimport './ERC721.sol';\r\n\r\n// \r\ncontract ERC721Enumerable is ERC721 {\r\n\r\n    //\r\n    uint256[] private _allTokens;\r\n\r\n    // mapping from tokenId to position in _allTokens array\r\n    // tokenId \r\n    mapping(uint256 => uint256) private _allTokensIndex;\r\n\r\n    // mapping of owner to list of all owner token ids\r\n    // ID\r\n    mapping(address => uint256[]) private _ownedTokens;\r\n\r\n    // mapping from token ID To index of the owner tokens list\r\n    // ID\r\n    mapping(uint256 => uint256) private _ownedTokensIndex;\r\n\r\n    /// @notice Count NFTs tracked by this contract\r\n    /// @return A count of valid NFTs tracked by this contract, where each one of\r\n    ///  them has an assigned and queryable owner not equal to the zero address\r\n    // \r\n    function totalSupply() external view returns (uint256){\r\n        return _allTokens.length;\r\n    }\r\n\r\n\r\n    // \r\n    // \r\n    // \r\n    //  this \r\n    function _mint(address to, uint256 tokenId) internal override(ERC721)  {\r\n        super._mint(to, tokenId);\r\n        //2 things! A.add token to the owner\r\n        //B. add tokens to our totalsuppy - to allTokens \r\n        // \r\n        _addTokensToTokenEnumeration(tokenId);\r\n        // \r\n        _addTokensToOwnerEnumeration(to, tokenId);\r\n    }\r\n\r\n    // add tokens to the_alltokens array and set the position of\r\n    // the token index\r\n    // \r\n    function _addTokensToTokenEnumeration(uint256 tokenId) private {\r\n        // id = \r\n        _allTokensIndex[tokenId] = _allTokens.length;\r\n        // push\r\n        _allTokens.push(tokenId);\r\n    }\r\n\r\n    // \r\n    function _addTokensToOwnerEnumeration(address to, uint256 tokenId) private {\r\n        // 1.add address and token id to the ownedTokens\r\n        // 2.ownedTokensIndex tokenId set to address of ownedTokens position\r\n        // 3.we want to execute the function with minting\r\n        // id = \r\n        _ownedTokensIndex[tokenId] = _ownedTokens[to].length;\r\n        // push\r\n        _ownedTokens[to].push(tokenId);\r\n    }\r\n\r\n    // \r\n    function tokenByIndex(uint256 index) public view returns(uint256) {\r\n        // \r\n        // external \r\n        //  f  f  this.f()  \r\n        // calldata.\r\n        require(index < this.totalSupply(), \"global index is out of bound!\");\r\n        return _allTokens [index];\r\n    }\r\n\r\n    // \r\n    function tokenOfOwnerByIndex(address owner,uint index) public view returns(uint256) {\r\n        // \r\n        require(index < balanceOf(owner), \"owner index is out of bound!\");\r\n        return _ownedTokens[owner][index];\r\n\r\n    }\r\n\r\n\r\n\r\n\r\n}",
  "sourcePath": "C:\\Users\\Afire\\Documents\\ShareDocument\\github\\Solidity\\src\\contracts\\ERC721Enumerable.sol",
  "compiler": {
    "name": "solc",
    "version": "0.8.12+commit.f00d7308.Emscripten.clang"
  },
  "schemaVersion": "3.4.5",
  "updatedAt": "2022-02-27T09:25:10.445Z",
  "devdoc": {
    "kind": "dev",
    "methods": {
      "balanceOf(address)": {
        "details": "NFTs assigned to the zero address are considered invalid, and this  function throws for queries about the zero address.",
        "params": {
          "_owner": "An address for whom to query the balance"
        },
        "returns": {
          "_0": "The number of NFTs owned by `_owner`, possibly zero"
        }
      },
      "ownerOf(uint256)": {
        "details": "NFTs assigned to zero address are considered invalid, and queries  about them do throw.",
        "params": {
          "_tokenId": "The identifier for an NFT"
        },
        "returns": {
          "_0": "The address of the owner of the NFT"
        }
      },
      "totalSupply()": {
        "returns": {
          "_0": "A count of valid NFTs tracked by this contract, where each one of  them has an assigned and queryable owner not equal to the zero address"
        }
      }
    },
    "version": 1
  },
  "userdoc": {
    "kind": "user",
    "methods": {
      "balanceOf(address)": {
        "notice": "Count all NFTs assigned to an owner"
      },
      "ownerOf(uint256)": {
        "notice": "Find the owner of an NFT"
      },
      "totalSupply()": {
        "notice": "Count NFTs tracked by this contract"
      }
    },
    "version": 1
  }
}