{
  "contractName": "ERC721Connector",
  "abi": [
    {
      "inputs": [
        {
          "internalType": "string",
          "name": "name",
          "type": "string"
        },
        {
          "internalType": "string",
          "name": "symbol",
          "type": "string"
        }
      ],
      "stateMutability": "nonpayable",
      "type": "constructor"
    },
    {
      "anonymous": false,
      "inputs": [
        {
          "indexed": true,
          "internalType": "address",
          "name": "from",
          "type": "address"
        },
        {
          "indexed": true,
          "internalType": "address",
          "name": "to",
          "type": "address"
        },
        {
          "indexed": true,
          "internalType": "uint256",
          "name": "tokenId",
          "type": "uint256"
        }
      ],
      "name": "Transfer",
      "type": "event"
    },
    {
      "inputs": [
        {
          "internalType": "address",
          "name": "_owner",
          "type": "address"
        }
      ],
      "name": "balanceOf",
      "outputs": [
        {
          "internalType": "uint256",
          "name": "",
          "type": "uint256"
        }
      ],
      "stateMutability": "view",
      "type": "function"
    },
    {
      "inputs": [],
      "name": "name",
      "outputs": [
        {
          "internalType": "string",
          "name": "",
          "type": "string"
        }
      ],
      "stateMutability": "view",
      "type": "function"
    },
    {
      "inputs": [
        {
          "internalType": "uint256",
          "name": "_tokenId",
          "type": "uint256"
        }
      ],
      "name": "ownerOf",
      "outputs": [
        {
          "internalType": "address",
          "name": "",
          "type": "address"
        }
      ],
      "stateMutability": "view",
      "type": "function"
    },
    {
      "inputs": [],
      "name": "symbol",
      "outputs": [
        {
          "internalType": "string",
          "name": "",
          "type": "string"
        }
      ],
      "stateMutability": "view",
      "type": "function"
    },
    {
      "inputs": [
        {
          "internalType": "uint256",
          "name": "index",
          "type": "uint256"
        }
      ],
      "name": "tokenByIndex",
      "outputs": [
        {
          "internalType": "uint256",
          "name": "",
          "type": "uint256"
        }
      ],
      "stateMutability": "view",
      "type": "function"
    },
    {
      "inputs": [
        {
          "internalType": "address",
          "name": "owner",
          "type": "address"
        },
        {
          "internalType": "uint256",
          "name": "index",
          "type": "uint256"
        }
      ],
      "name": "tokenOfOwnerByIndex",
      "outputs": [
        {
          "internalType": "uint256",
          "name": "",
          "type": "uint256"
        }
      ],
      "stateMutability": "view",
      "type": "function"
    },
    {
      "inputs": [],
      "name": "totalSupply",
      "outputs": [
        {
          "internalType": "uint256",
          "name": "",
          "type": "uint256"
        }
      ],
      "stateMutability": "view",
      "type": "function"
    }
  ],
  "bytecode": "0x60806040523480156200001157600080fd5b5060405162000e2f38038062000e2f8339818101604052810190620000379190620002c2565b818181600090805190602001906200005192919062000075565b5080600190805190602001906200006a92919062000075565b5050505050620003ac565b828054620000839062000376565b90600052602060002090601f016020900481019282620000a75760008555620000f3565b82601f10620000c257805160ff1916838001178555620000f3565b82800160010185558215620000f3579182015b82811115620000f2578251825591602001919060010190620000d5565b5b50905062000102919062000106565b5090565b5b808211156200012157600081600090555060010162000107565b5090565b6000604051905090565b600080fd5b600080fd5b600080fd5b600080fd5b6000601f19601f8301169050919050565b7f4e487b7100000000000000000000000000000000000000000000000000000000600052604160045260246000fd5b6200018e8262000143565b810181811067ffffffffffffffff82111715620001b057620001af62000154565b5b80604052505050565b6000620001c562000125565b9050620001d3828262000183565b919050565b600067ffffffffffffffff821115620001f657620001f562000154565b5b620002018262000143565b9050602081019050919050565b60005b838110156200022e57808201518184015260208101905062000211565b838111156200023e576000848401525b50505050565b60006200025b6200025584620001d8565b620001b9565b9050828152602081018484840111156200027a57620002796200013e565b5b620002878482856200020e565b509392505050565b600082601f830112620002a757620002a662000139565b5b8151620002b984826020860162000244565b91505092915050565b60008060408385031215620002dc57620002db6200012f565b5b600083015167ffffffffffffffff811115620002fd57620002fc62000134565b5b6200030b858286016200028f565b925050602083015167ffffffffffffffff8111156200032f576200032e62000134565b5b6200033d858286016200028f565b9150509250929050565b7f4e487b7100000000000000000000000000000000000000000000000000000000600052602260045260246000fd5b600060028204905060018216806200038f57607f821691505b60208210811415620003a657620003a562000347565b5b50919050565b610a7380620003bc6000396000f3fe608060405234801561001057600080fd5b506004361061007d5760003560e01c80634f6ccce71161005b5780634f6ccce7146100ee5780636352211e1461011e57806370a082311461014e57806395d89b411461017e5761007d565b806306fdde031461008257806318160ddd146100a05780632f745c59146100be575b600080fd5b61008a61019c565b6040516100979190610658565b60405180910390f35b6100a861022e565b6040516100b59190610693565b60405180910390f35b6100d860048036038101906100d3919061073d565b61023b565b6040516100e59190610693565b60405180910390f35b6101086004803603810190610103919061077d565b6102eb565b6040516101159190610693565b60405180910390f35b6101386004803603810190610133919061077d565b6103c3565b60405161014591906107b9565b60405180910390f35b610168600480360381019061016391906107d4565b610475565b6040516101759190610693565b60405180910390f35b61018661052d565b6040516101939190610658565b60405180910390f35b6060600080546101ab90610830565b80601f01602080910402602001604051908101604052809291908181526020018280546101d790610830565b80156102245780601f106101f957610100808354040283529160200191610224565b820191906000526020600020905b81548152906001019060200180831161020757829003601f168201915b5050505050905090565b6000600480549050905090565b600061024683610475565b8210610287576040517f08c379a000000000000000000000000000000000000000000000000000000000815260040161027e906108ae565b60405180910390fd5b600660008473ffffffffffffffffffffffffffffffffffffffff1673ffffffffffffffffffffffffffffffffffffffff16815260200190815260200160002082815481106102d8576102d76108ce565b5b9060005260206000200154905092915050565b60003073ffffffffffffffffffffffffffffffffffffffff166318160ddd6040518163ffffffff1660e01b8152600401602060405180830381865afa158015610338573d6000803e3d6000fd5b505050506040513d601f19601f8201168201806040525081019061035c9190610912565b821061039d576040517f08c379a00000000000000000000000000000000000000000000000000000000081526004016103949061098b565b60405180910390fd5b600482815481106103b1576103b06108ce565b5b90600052602060002001549050919050565b6000806002600084815260200190815260200160002060009054906101000a900473ffffffffffffffffffffffffffffffffffffffff169050600073ffffffffffffffffffffffffffffffffffffffff168173ffffffffffffffffffffffffffffffffffffffff16141561046c576040517f08c379a000000000000000000000000000000000000000000000000000000000815260040161046390610a1d565b60405180910390fd5b80915050919050565b60008073ffffffffffffffffffffffffffffffffffffffff168273ffffffffffffffffffffffffffffffffffffffff1614156104e6576040517f08c379a00000000000000000000000000000000000000000000000000000000081526004016104dd90610a1d565b60405180910390fd5b600360008373ffffffffffffffffffffffffffffffffffffffff1673ffffffffffffffffffffffffffffffffffffffff168152602001908152602001600020549050919050565b60606001805461053c90610830565b80601f016020809104026020016040519081016040528092919081815260200182805461056890610830565b80156105b55780601f1061058a576101008083540402835291602001916105b5565b820191906000526020600020905b81548152906001019060200180831161059857829003601f168201915b5050505050905090565b600081519050919050565b600082825260208201905092915050565b60005b838110156105f95780820151818401526020810190506105de565b83811115610608576000848401525b50505050565b6000601f19601f8301169050919050565b600061062a826105bf565b61063481856105ca565b93506106448185602086016105db565b61064d8161060e565b840191505092915050565b60006020820190508181036000830152610672818461061f565b905092915050565b6000819050919050565b61068d8161067a565b82525050565b60006020820190506106a86000830184610684565b92915050565b600080fd5b600073ffffffffffffffffffffffffffffffffffffffff82169050919050565b60006106de826106b3565b9050919050565b6106ee816106d3565b81146106f957600080fd5b50565b60008135905061070b816106e5565b92915050565b61071a8161067a565b811461072557600080fd5b50565b60008135905061073781610711565b92915050565b60008060408385031215610754576107536106ae565b5b6000610762858286016106fc565b925050602061077385828601610728565b9150509250929050565b600060208284031215610793576107926106ae565b5b60006107a184828501610728565b91505092915050565b6107b3816106d3565b82525050565b60006020820190506107ce60008301846107aa565b92915050565b6000602082840312156107ea576107e96106ae565b5b60006107f8848285016106fc565b91505092915050565b7f4e487b7100000000000000000000000000000000000000000000000000000000600052602260045260246000fd5b6000600282049050600182168061084857607f821691505b6020821081141561085c5761085b610801565b5b50919050565b7f6f776e657220696e646578206973206f7574206f6620626f756e642100000000600082015250565b6000610898601c836105ca565b91506108a382610862565b602082019050919050565b600060208201905081810360008301526108c78161088b565b9050919050565b7f4e487b7100000000000000000000000000000000000000000000000000000000600052603260045260246000fd5b60008151905061090c81610711565b92915050565b600060208284031215610928576109276106ae565b5b6000610936848285016108fd565b91505092915050565b7f676c6f62616c20696e646578206973206f7574206f6620626f756e6421000000600082015250565b6000610975601d836105ca565b91506109808261093f565b602082019050919050565b600060208201905081810360008301526109a481610968565b9050919050565b7f6f776e657220717565727920666f72206e6f6e2d6578697374656e7420746f6b60008201527f656e000000000000000000000000000000000000000000000000000000000000602082015250565b6000610a076022836105ca565b9150610a12826109ab565b604082019050919050565b60006020820190508181036000830152610a36816109fa565b905091905056fea264697066735822122008a557fd2a65c6bd071cbd372e3dfa9771322680e543441b7d1e236ce672b25f64736f6c634300080c0033",
  "immutableReferences": {},
  "source": "// SPDX-License-Identifier: MIT\r\npragma solidity ^0.8.0;\r\n\r\nimport \"./ERC721Metadata.sol\";\r\nimport \"./ERC721Enumerable.sol\";\r\n\r\n//  \r\ncontract ERC721Connector is ERC721Metadata, ERC721Enumerable {\r\n    //  \r\n    constructor (string memory name, string memory symbol)\r\n    ERC721Metadata(name, symbol)  {}\r\n\r\n}",
  "sourcePath": "C:\\Users\\Afire\\Documents\\ShareDocument\\github\\nftLearning\\Learn01\\nft-marketplace-starter-kit-main\\src\\contracts\\ERC721Connector.sol",
  "compiler": {
    "name": "solc",
    "version": "0.8.12+commit.f00d7308.Emscripten.clang"
  },
  "schemaVersion": "3.4.5",
  "updatedAt": "2022-02-26T10:40:58.914Z",
  "devdoc": {
    "kind": "dev",
    "methods": {
      "balanceOf(address)": {
        "details": "NFTs assigned to the zero address are considered invalid, and this  function throws for queries about the zero address.",
        "params": {
          "_owner": "An address for whom to query the balance"
        },
        "returns": {
          "_0": "The number of NFTs owned by `_owner`, possibly zero"
        }
      },
      "ownerOf(uint256)": {
        "details": "NFTs assigned to zero address are considered invalid, and queries  about them do throw.",
        "params": {
          "_tokenId": "The identifier for an NFT"
        },
        "returns": {
          "_0": "The address of the owner of the NFT"
        }
      },
      "totalSupply()": {
        "returns": {
          "_0": "A count of valid NFTs tracked by this contract, where each one of  them has an assigned and queryable owner not equal to the zero address"
        }
      }
    },
    "version": 1
  },
  "userdoc": {
    "kind": "user",
    "methods": {
      "balanceOf(address)": {
        "notice": "Count all NFTs assigned to an owner"
      },
      "ownerOf(uint256)": {
        "notice": "Find the owner of an NFT"
      },
      "totalSupply()": {
        "notice": "Count NFTs tracked by this contract"
      }
    },
    "version": 1
  }
}