{
  "contractName": "ERC721",
  "abi": [
    {
      "anonymous": false,
      "inputs": [
        {
          "indexed": true,
          "internalType": "address",
          "name": "owner",
          "type": "address"
        },
        {
          "indexed": true,
          "internalType": "address",
          "name": "approved",
          "type": "address"
        },
        {
          "indexed": true,
          "internalType": "uint256",
          "name": "tokenId",
          "type": "uint256"
        }
      ],
      "name": "Approval",
      "type": "event"
    },
    {
      "anonymous": false,
      "inputs": [
        {
          "indexed": true,
          "internalType": "address",
          "name": "from",
          "type": "address"
        },
        {
          "indexed": true,
          "internalType": "address",
          "name": "to",
          "type": "address"
        },
        {
          "indexed": true,
          "internalType": "uint256",
          "name": "tokenId",
          "type": "uint256"
        }
      ],
      "name": "Transfer",
      "type": "event"
    },
    {
      "inputs": [
        {
          "internalType": "address",
          "name": "_owner",
          "type": "address"
        }
      ],
      "name": "balanceOf",
      "outputs": [
        {
          "internalType": "uint256",
          "name": "",
          "type": "uint256"
        }
      ],
      "stateMutability": "view",
      "type": "function"
    },
    {
      "inputs": [
        {
          "internalType": "uint256",
          "name": "_tokenId",
          "type": "uint256"
        }
      ],
      "name": "ownerOf",
      "outputs": [
        {
          "internalType": "address",
          "name": "",
          "type": "address"
        }
      ],
      "stateMutability": "view",
      "type": "function"
    },
    {
      "inputs": [
        {
          "internalType": "address",
          "name": "_to",
          "type": "address"
        },
        {
          "internalType": "uint256",
          "name": "tokenId",
          "type": "uint256"
        }
      ],
      "name": "approve",
      "outputs": [],
      "stateMutability": "nonpayable",
      "type": "function"
    }
  ],
  "bytecode": "0x608060405234801561001057600080fd5b506107fe806100206000396000f3fe608060405234801561001057600080fd5b50600436106100415760003560e01c8063095ea7b3146100465780636352211e1461006257806370a0823114610092575b600080fd5b610060600480360381019061005b91906104d1565b6100c2565b005b61007c60048036038101906100779190610511565b6102cf565b604051610089919061054d565b60405180910390f35b6100ac60048036038101906100a79190610568565b610380565b6040516100b991906105a4565b60405180910390f35b60003073ffffffffffffffffffffffffffffffffffffffff16636352211e836040518263ffffffff1660e01b81526004016100fd91906105a4565b602060405180830381865afa15801561011a573d6000803e3d6000fd5b505050506040513d601f19601f8201168201806040525081019061013e91906105d4565b90508073ffffffffffffffffffffffffffffffffffffffff168373ffffffffffffffffffffffffffffffffffffffff1614156101af576040517f08c379a00000000000000000000000000000000000000000000000000000000081526004016101a690610684565b60405180910390fd5b8073ffffffffffffffffffffffffffffffffffffffff163373ffffffffffffffffffffffffffffffffffffffff161461021d576040517f08c379a000000000000000000000000000000000000000000000000000000000815260040161021490610716565b60405180910390fd5b826002600084815260200190815260200160002060006101000a81548173ffffffffffffffffffffffffffffffffffffffff021916908373ffffffffffffffffffffffffffffffffffffffff160217905550818373ffffffffffffffffffffffffffffffffffffffff168273ffffffffffffffffffffffffffffffffffffffff167f8c5be1e5ebec7d5bd14f71427d1e84f3dd0314c0f7b2291e5b200ac8c7c3b92560405160405180910390a4505050565b60008060008084815260200190815260200160002060009054906101000a900473ffffffffffffffffffffffffffffffffffffffff169050600073ffffffffffffffffffffffffffffffffffffffff168173ffffffffffffffffffffffffffffffffffffffff161415610377576040517f08c379a000000000000000000000000000000000000000000000000000000000815260040161036e906107a8565b60405180910390fd5b80915050919050565b60008073ffffffffffffffffffffffffffffffffffffffff168273ffffffffffffffffffffffffffffffffffffffff1614156103f1576040517f08c379a00000000000000000000000000000000000000000000000000000000081526004016103e8906107a8565b60405180910390fd5b600160008373ffffffffffffffffffffffffffffffffffffffff1673ffffffffffffffffffffffffffffffffffffffff168152602001908152602001600020549050919050565b600080fd5b600073ffffffffffffffffffffffffffffffffffffffff82169050919050565b60006104688261043d565b9050919050565b6104788161045d565b811461048357600080fd5b50565b6000813590506104958161046f565b92915050565b6000819050919050565b6104ae8161049b565b81146104b957600080fd5b50565b6000813590506104cb816104a5565b92915050565b600080604083850312156104e8576104e7610438565b5b60006104f685828601610486565b9250506020610507858286016104bc565b9150509250929050565b60006020828403121561052757610526610438565b5b6000610535848285016104bc565b91505092915050565b6105478161045d565b82525050565b6000602082019050610562600083018461053e565b92915050565b60006020828403121561057e5761057d610438565b5b600061058c84828501610486565b91505092915050565b61059e8161049b565b82525050565b60006020820190506105b96000830184610595565b92915050565b6000815190506105ce8161046f565b92915050565b6000602082840312156105ea576105e9610438565b5b60006105f8848285016105bf565b91505092915050565b600082825260208201905092915050565b7f4552524f52202d20617070726f76616c20746f2063757272656e74206f776e6560008201527f7200000000000000000000000000000000000000000000000000000000000000602082015250565b600061066e602183610601565b915061067982610612565b604082019050919050565b6000602082019050818103600083015261069d81610661565b9050919050565b7f43757272656e742063616c6c6572206973206e6f7420746865206f776e65722060008201527f6f662074686520746f6b656e0000000000000000000000000000000000000000602082015250565b6000610700602c83610601565b915061070b826106a4565b604082019050919050565b6000602082019050818103600083015261072f816106f3565b9050919050565b7f6f776e657220717565727920666f72206e6f6e2d6578697374656e7420746f6b60008201527f656e000000000000000000000000000000000000000000000000000000000000602082015250565b6000610792602283610601565b915061079d82610736565b604082019050919050565b600060208201905081810360008301526107c181610785565b905091905056fea26469706673582212202db071282ef3e9dd4264a8638c6fa48ab53d0360025e7a29ef8cd81540c01a4464736f6c634300080c0033",
  "immutableReferences": {},
  "source": "// SPDX-License-Identifier: MIT\r\npragma solidity ^0.8.0;\r\n    \r\n    /*\r\n    building out the minting function:\r\n        a. nft to point to an address\r\n        b. keep track of the token ids \r\n        c. keep track of token owner addresses to token ids\r\n        d. keep track of how many tokens an owner address has\r\n        e. create an event that emits a transfer log - contract address, \r\n         where it is being minted to, the id\r\n\r\n    */\r\n\r\ncontract ERC721 {\r\n\r\n    // \r\n    event Transfer(\r\n        address indexed from,\r\n        address indexed to,\r\n        uint256 indexed tokenId\r\n        );\r\n    // \r\n    event Approval(\r\n        address indexed owner,\r\n        address indexed approved,\r\n        uint256 indexed tokenId\r\n        );\r\n\r\n    // address\r\n    mapping(uint256 => address) private _tokenOwner;\r\n    // address\r\n    mapping(address => uint256) private _OwnedTokensCount;\r\n\r\n    // \r\n    mapping(uint256 => address) private _tokenApprovals;\r\n\r\n    // EXERCISE: 1. REGISTER THE INTERFACE FOR THE ERC721 contract so that it includes\r\n    // the following functions: balanceOf, ownerOf, transferFrom\r\n    // *note by register the interface: write the constructors with the \r\n    // according byte conversions\r\n\r\n    // 2.REGISTER THE INTERFACE FOR THE ERC721Enumerable contract so that includes\r\n    // totalSupply, tokenByIndex, tokenOfOwnerByIndex functions\r\n\r\n    // 3.REGISTER THE INTERFACE FOR THE ERC721Metadata contract so that includes\r\n    // name and the symbol functions\r\n\r\n    // \r\n    function _exists(uint256 tokenId) internal view returns(bool){\r\n        //\r\n        address owner = _tokenOwner[tokenId];\r\n        // true\r\n        return owner != address(0);\r\n    }\r\n\r\n    function _mint(address to, uint256 tokenId) internal virtual{\r\n        // \r\n        require(to != address(0), \"ERC721:minting to the zero address\");\r\n        // \r\n        require(!_exists(tokenId), \"ERC721:token already minted\");\r\n        \r\n        //we are adding a new address with a token id for minting\r\n        // \r\n        _tokenOwner[tokenId] = to;\r\n\r\n        //keeping track of each address that is minting and adding one\r\n        // \r\n        _OwnedTokensCount[to] += 1;\r\n\r\n        // \r\n        emit Transfer(address(0), to, tokenId);\r\n\r\n    }\r\n    \r\n    /// @notice Count all NFTs assigned to an owner\r\n    /// @dev NFTs assigned to the zero address are considered invalid, and this\r\n    ///  function throws for queries about the zero address.\r\n    /// @param _owner An address for whom to query the balance\r\n    /// @return The number of NFTs owned by `_owner`, possibly zero\r\n    // \r\n    function balanceOf(address _owner) public view returns(uint256) {\r\n        //\r\n        require(_owner != address(0), \"owner query for non-existent token\");\r\n        // \r\n        return _OwnedTokensCount[_owner];\r\n\r\n    }\r\n\r\n    /// @notice Find the owner of an NFT\r\n    /// @dev NFTs assigned to zero address are considered invalid, and queries\r\n    ///  about them do throw.\r\n    /// @param _tokenId The identifier for an NFT\r\n    /// @return The address of the owner of the NFT\r\n    // ID\r\n    function ownerOf(uint256 _tokenId) external view returns (address) {\r\n        // ID\r\n        address _owner = _tokenOwner[_tokenId];\r\n        // \r\n        require(_owner != address(0), \"owner query for non-existent token\");\r\n        return _owner;\r\n    }\r\n\r\n    // \r\n    // 1.\r\n    // 2.\r\n    // 3.caller\r\n    // 4.\r\n    function approve(address _to, uint256 tokenId) public {\r\n        address owner = this.ownerOf(tokenId);\r\n        //3\r\n        require(_to != owner, \"ERROR - approval to current owner\");\r\n        //1\r\n        require(msg.sender == owner, \"Current caller is not the owner of the token\");\r\n        //4\r\n        _tokenApprovals[tokenId] = _to;\r\n\r\n        emit Approval(owner, _to, tokenId);\r\n    }\r\n\r\n\r\n}\r\n",
  "sourcePath": "C:\\Users\\Afire\\Documents\\ShareDocument\\github\\Solidity\\src\\contracts\\ERC721.sol",
  "compiler": {
    "name": "solc",
    "version": "0.8.12+commit.f00d7308.Emscripten.clang"
  },
  "schemaVersion": "3.4.5",
  "updatedAt": "2022-02-27T09:25:10.415Z",
  "devdoc": {
    "kind": "dev",
    "methods": {
      "balanceOf(address)": {
        "details": "NFTs assigned to the zero address are considered invalid, and this  function throws for queries about the zero address.",
        "params": {
          "_owner": "An address for whom to query the balance"
        },
        "returns": {
          "_0": "The number of NFTs owned by `_owner`, possibly zero"
        }
      },
      "ownerOf(uint256)": {
        "details": "NFTs assigned to zero address are considered invalid, and queries  about them do throw.",
        "params": {
          "_tokenId": "The identifier for an NFT"
        },
        "returns": {
          "_0": "The address of the owner of the NFT"
        }
      }
    },
    "version": 1
  },
  "userdoc": {
    "kind": "user",
    "methods": {
      "balanceOf(address)": {
        "notice": "Count all NFTs assigned to an owner"
      },
      "ownerOf(uint256)": {
        "notice": "Find the owner of an NFT"
      }
    },
    "version": 1
  }
}