{
  "contractName": "KryptoBird",
  "abi": [
    {
      "inputs": [],
      "stateMutability": "nonpayable",
      "type": "constructor"
    },
    {
      "anonymous": false,
      "inputs": [
        {
          "indexed": true,
          "internalType": "address",
          "name": "owner",
          "type": "address"
        },
        {
          "indexed": true,
          "internalType": "address",
          "name": "approved",
          "type": "address"
        },
        {
          "indexed": true,
          "internalType": "uint256",
          "name": "tokenId",
          "type": "uint256"
        }
      ],
      "name": "Approval",
      "type": "event"
    },
    {
      "anonymous": false,
      "inputs": [
        {
          "indexed": true,
          "internalType": "address",
          "name": "from",
          "type": "address"
        },
        {
          "indexed": true,
          "internalType": "address",
          "name": "to",
          "type": "address"
        },
        {
          "indexed": true,
          "internalType": "uint256",
          "name": "tokenId",
          "type": "uint256"
        }
      ],
      "name": "Transfer",
      "type": "event"
    },
    {
      "inputs": [
        {
          "internalType": "address",
          "name": "_to",
          "type": "address"
        },
        {
          "internalType": "uint256",
          "name": "tokenId",
          "type": "uint256"
        }
      ],
      "name": "approve",
      "outputs": [],
      "stateMutability": "nonpayable",
      "type": "function"
    },
    {
      "inputs": [
        {
          "internalType": "address",
          "name": "_owner",
          "type": "address"
        }
      ],
      "name": "balanceOf",
      "outputs": [
        {
          "internalType": "uint256",
          "name": "",
          "type": "uint256"
        }
      ],
      "stateMutability": "view",
      "type": "function",
      "constant": true
    },
    {
      "inputs": [
        {
          "internalType": "uint256",
          "name": "",
          "type": "uint256"
        }
      ],
      "name": "kryptoBirdz",
      "outputs": [
        {
          "internalType": "string",
          "name": "",
          "type": "string"
        }
      ],
      "stateMutability": "view",
      "type": "function",
      "constant": true
    },
    {
      "inputs": [],
      "name": "name",
      "outputs": [
        {
          "internalType": "string",
          "name": "",
          "type": "string"
        }
      ],
      "stateMutability": "view",
      "type": "function",
      "constant": true
    },
    {
      "inputs": [
        {
          "internalType": "uint256",
          "name": "_tokenId",
          "type": "uint256"
        }
      ],
      "name": "ownerOf",
      "outputs": [
        {
          "internalType": "address",
          "name": "",
          "type": "address"
        }
      ],
      "stateMutability": "view",
      "type": "function",
      "constant": true
    },
    {
      "inputs": [],
      "name": "symbol",
      "outputs": [
        {
          "internalType": "string",
          "name": "",
          "type": "string"
        }
      ],
      "stateMutability": "view",
      "type": "function",
      "constant": true
    },
    {
      "inputs": [
        {
          "internalType": "uint256",
          "name": "index",
          "type": "uint256"
        }
      ],
      "name": "tokenByIndex",
      "outputs": [
        {
          "internalType": "uint256",
          "name": "",
          "type": "uint256"
        }
      ],
      "stateMutability": "view",
      "type": "function",
      "constant": true
    },
    {
      "inputs": [
        {
          "internalType": "address",
          "name": "owner",
          "type": "address"
        },
        {
          "internalType": "uint256",
          "name": "index",
          "type": "uint256"
        }
      ],
      "name": "tokenOfOwnerByIndex",
      "outputs": [
        {
          "internalType": "uint256",
          "name": "",
          "type": "uint256"
        }
      ],
      "stateMutability": "view",
      "type": "function",
      "constant": true
    },
    {
      "inputs": [],
      "name": "totalSupply",
      "outputs": [
        {
          "internalType": "uint256",
          "name": "",
          "type": "uint256"
        }
      ],
      "stateMutability": "view",
      "type": "function",
      "constant": true
    },
    {
      "inputs": [
        {
          "internalType": "string",
          "name": "_kryptoBird",
          "type": "string"
        }
      ],
      "name": "mint",
      "outputs": [],
      "stateMutability": "nonpayable",
      "type": "function"
    }
  ],
  "bytecode": "0x60806040523480156200001157600080fd5b506040518060400160405280600a81526020017f4b727970746f42697264000000000000000000000000000000000000000000008152506040518060400160405280600681526020017f4b424952445a00000000000000000000000000000000000000000000000000008152508181816000908051906020019062000098929190620000bc565b508060019080519060200190620000b1929190620000bc565b5050505050620001d1565b828054620000ca906200019b565b90600052602060002090601f016020900481019282620000ee57600085556200013a565b82601f106200010957805160ff19168380011785556200013a565b828001600101855582156200013a579182015b82811115620001395782518255916020019190600101906200011c565b5b5090506200014991906200014d565b5090565b5b80821115620001685760008160009055506001016200014e565b5090565b7f4e487b7100000000000000000000000000000000000000000000000000000000600052602260045260246000fd5b60006002820490506001821680620001b457607f821691505b60208210811415620001cb57620001ca6200016c565b5b50919050565b61184c80620001e16000396000f3fe608060405234801561001057600080fd5b506004361061009e5760003560e01c80636352211e116100665780636352211e1461015b57806370a082311461018b57806393ab6e56146101bb57806395d89b41146101eb578063d85d3d27146102095761009e565b806306fdde03146100a3578063095ea7b3146100c157806318160ddd146100dd5780632f745c59146100fb5780634f6ccce71461012b575b600080fd5b6100ab610225565b6040516100b89190610ea2565b60405180910390f35b6100db60048036038101906100d69190610f6c565b6102b7565b005b6100e56104c4565b6040516100f29190610fbb565b60405180910390f35b61011560048036038101906101109190610f6c565b6104d1565b6040516101229190610fbb565b60405180910390f35b61014560048036038101906101409190610fd6565b610581565b6040516101529190610fbb565b60405180910390f35b61017560048036038101906101709190610fd6565b610659565b6040516101829190611012565b60405180910390f35b6101a560048036038101906101a0919061102d565b61070b565b6040516101b29190610fbb565b60405180910390f35b6101d560048036038101906101d09190610fd6565b6107c3565b6040516101e29190610ea2565b60405180910390f35b6101f361086f565b6040516102009190610ea2565b60405180910390f35b610223600480360381019061021e919061118f565b610901565b005b60606000805461023490611207565b80601f016020809104026020016040519081016040528092919081815260200182805461026090611207565b80156102ad5780601f10610282576101008083540402835291602001916102ad565b820191906000526020600020905b81548152906001019060200180831161029057829003601f168201915b5050505050905090565b60003073ffffffffffffffffffffffffffffffffffffffff16636352211e836040518263ffffffff1660e01b81526004016102f29190610fbb565b602060405180830381865afa15801561030f573d6000803e3d6000fd5b505050506040513d601f19601f82011682018060405250810190610333919061124e565b90508073ffffffffffffffffffffffffffffffffffffffff168373ffffffffffffffffffffffffffffffffffffffff1614156103a4576040517f08c379a000000000000000000000000000000000000000000000000000000000815260040161039b906112ed565b60405180910390fd5b8073ffffffffffffffffffffffffffffffffffffffff163373ffffffffffffffffffffffffffffffffffffffff1614610412576040517f08c379a00000000000000000000000000000000000000000000000000000000081526004016104099061137f565b60405180910390fd5b826004600084815260200190815260200160002060006101000a81548173ffffffffffffffffffffffffffffffffffffffff021916908373ffffffffffffffffffffffffffffffffffffffff160217905550818373ffffffffffffffffffffffffffffffffffffffff168273ffffffffffffffffffffffffffffffffffffffff167f8c5be1e5ebec7d5bd14f71427d1e84f3dd0314c0f7b2291e5b200ac8c7c3b92560405160405180910390a4505050565b6000600580549050905090565b60006104dc8361070b565b821061051d576040517f08c379a0000000000000000000000000000000000000000000000000000000008152600401610514906113eb565b60405180910390fd5b600760008473ffffffffffffffffffffffffffffffffffffffff1673ffffffffffffffffffffffffffffffffffffffff168152602001908152602001600020828154811061056e5761056d61140b565b5b9060005260206000200154905092915050565b60003073ffffffffffffffffffffffffffffffffffffffff166318160ddd6040518163ffffffff1660e01b8152600401602060405180830381865afa1580156105ce573d6000803e3d6000fd5b505050506040513d601f19601f820116820180604052508101906105f2919061144f565b8210610633576040517f08c379a000000000000000000000000000000000000000000000000000000000815260040161062a906114c8565b60405180910390fd5b600582815481106106475761064661140b565b5b90600052602060002001549050919050565b6000806002600084815260200190815260200160002060009054906101000a900473ffffffffffffffffffffffffffffffffffffffff169050600073ffffffffffffffffffffffffffffffffffffffff168173ffffffffffffffffffffffffffffffffffffffff161415610702576040517f08c379a00000000000000000000000000000000000000000000000000000000081526004016106f99061155a565b60405180910390fd5b80915050919050565b60008073ffffffffffffffffffffffffffffffffffffffff168273ffffffffffffffffffffffffffffffffffffffff16141561077c576040517f08c379a00000000000000000000000000000000000000000000000000000000081526004016107739061155a565b60405180910390fd5b600360008373ffffffffffffffffffffffffffffffffffffffff1673ffffffffffffffffffffffffffffffffffffffff168152602001908152602001600020549050919050565b600981815481106107d357600080fd5b9060005260206000200160009150905080546107ee90611207565b80601f016020809104026020016040519081016040528092919081815260200182805461081a90611207565b80156108675780601f1061083c57610100808354040283529160200191610867565b820191906000526020600020905b81548152906001019060200180831161084a57829003601f168201915b505050505081565b60606001805461087e90611207565b80601f01602080910402602001604051908101604052809291908181526020018280546108aa90611207565b80156108f75780601f106108cc576101008083540402835291602001916108f7565b820191906000526020600020905b8154815290600101906020018083116108da57829003601f168201915b5050505050905090565b600a8160405161091191906115b6565b908152602001604051809103902060009054906101000a900460ff161561096d576040517f08c379a00000000000000000000000000000000000000000000000000000000081526004016109649061163f565b60405180910390fd5b6009819080600181540180825580915050600190039060005260206000200160009091909190915090805190602001906109a8929190610d66565b50600060016009805490506109bd919061168e565b90506109c93382610a04565b6001600a836040516109db91906115b6565b908152602001604051809103902060006101000a81548160ff0219169083151502179055505050565b610a0e8282610a25565b610a1781610be7565b610a218282610c30565b5050565b600073ffffffffffffffffffffffffffffffffffffffff168273ffffffffffffffffffffffffffffffffffffffff161415610a95576040517f08c379a0000000000000000000000000000000000000000000000000000000008152600401610a8c90611734565b60405180910390fd5b610a9e81610cf4565b15610ade576040517f08c379a0000000000000000000000000000000000000000000000000000000008152600401610ad5906117a0565b60405180910390fd5b816002600083815260200190815260200160002060006101000a81548173ffffffffffffffffffffffffffffffffffffffff021916908373ffffffffffffffffffffffffffffffffffffffff1602179055506001600360008473ffffffffffffffffffffffffffffffffffffffff1673ffffffffffffffffffffffffffffffffffffffff1681526020019081526020016000206000828254610b8091906117c0565b92505081905550808273ffffffffffffffffffffffffffffffffffffffff16600073ffffffffffffffffffffffffffffffffffffffff167fddf252ad1be2c89b69c2b068fc378daa952ba7f163c4a11628f55a4df523b3ef60405160405180910390a45050565b6005805490506006600083815260200190815260200160002081905550600581908060018154018082558091505060019003906000526020600020016000909190919091505550565b600760008373ffffffffffffffffffffffffffffffffffffffff1673ffffffffffffffffffffffffffffffffffffffff168152602001908152602001600020805490506008600083815260200190815260200160002081905550600760008373ffffffffffffffffffffffffffffffffffffffff1673ffffffffffffffffffffffffffffffffffffffff1681526020019081526020016000208190806001815401808255809150506001900390600052602060002001600090919091909150555050565b6000806002600084815260200190815260200160002060009054906101000a900473ffffffffffffffffffffffffffffffffffffffff169050600073ffffffffffffffffffffffffffffffffffffffff168173ffffffffffffffffffffffffffffffffffffffff161415915050919050565b828054610d7290611207565b90600052602060002090601f016020900481019282610d945760008555610ddb565b82601f10610dad57805160ff1916838001178555610ddb565b82800160010185558215610ddb579182015b82811115610dda578251825591602001919060010190610dbf565b5b509050610de89190610dec565b5090565b5b80821115610e05576000816000905550600101610ded565b5090565b600081519050919050565b600082825260208201905092915050565b60005b83811015610e43578082015181840152602081019050610e28565b83811115610e52576000848401525b50505050565b6000601f19601f8301169050919050565b6000610e7482610e09565b610e7e8185610e14565b9350610e8e818560208601610e25565b610e9781610e58565b840191505092915050565b60006020820190508181036000830152610ebc8184610e69565b905092915050565b6000604051905090565b600080fd5b600080fd5b600073ffffffffffffffffffffffffffffffffffffffff82169050919050565b6000610f0382610ed8565b9050919050565b610f1381610ef8565b8114610f1e57600080fd5b50565b600081359050610f3081610f0a565b92915050565b6000819050919050565b610f4981610f36565b8114610f5457600080fd5b50565b600081359050610f6681610f40565b92915050565b60008060408385031215610f8357610f82610ece565b5b6000610f9185828601610f21565b9250506020610fa285828601610f57565b9150509250929050565b610fb581610f36565b82525050565b6000602082019050610fd06000830184610fac565b92915050565b600060208284031215610fec57610feb610ece565b5b6000610ffa84828501610f57565b91505092915050565b61100c81610ef8565b82525050565b60006020820190506110276000830184611003565b92915050565b60006020828403121561104357611042610ece565b5b600061105184828501610f21565b91505092915050565b600080fd5b600080fd5b7f4e487b7100000000000000000000000000000000000000000000000000000000600052604160045260246000fd5b61109c82610e58565b810181811067ffffffffffffffff821117156110bb576110ba611064565b5b80604052505050565b60006110ce610ec4565b90506110da8282611093565b919050565b600067ffffffffffffffff8211156110fa576110f9611064565b5b61110382610e58565b9050602081019050919050565b82818337600083830152505050565b600061113261112d846110df565b6110c4565b90508281526020810184848401111561114e5761114d61105f565b5b611159848285611110565b509392505050565b600082601f8301126111765761117561105a565b5b813561118684826020860161111f565b91505092915050565b6000602082840312156111a5576111a4610ece565b5b600082013567ffffffffffffffff8111156111c3576111c2610ed3565b5b6111cf84828501611161565b91505092915050565b7f4e487b7100000000000000000000000000000000000000000000000000000000600052602260045260246000fd5b6000600282049050600182168061121f57607f821691505b60208210811415611233576112326111d8565b5b50919050565b60008151905061124881610f0a565b92915050565b60006020828403121561126457611263610ece565b5b600061127284828501611239565b91505092915050565b7f4552524f52202d20617070726f76616c20746f2063757272656e74206f776e6560008201527f7200000000000000000000000000000000000000000000000000000000000000602082015250565b60006112d7602183610e14565b91506112e28261127b565b604082019050919050565b60006020820190508181036000830152611306816112ca565b9050919050565b7f43757272656e742063616c6c6572206973206e6f7420746865206f776e65722060008201527f6f662074686520746f6b656e0000000000000000000000000000000000000000602082015250565b6000611369602c83610e14565b91506113748261130d565b604082019050919050565b600060208201905081810360008301526113988161135c565b9050919050565b7f6f776e657220696e646578206973206f7574206f6620626f756e642100000000600082015250565b60006113d5601c83610e14565b91506113e08261139f565b602082019050919050565b60006020820190508181036000830152611404816113c8565b9050919050565b7f4e487b7100000000000000000000000000000000000000000000000000000000600052603260045260246000fd5b60008151905061144981610f40565b92915050565b60006020828403121561146557611464610ece565b5b60006114738482850161143a565b91505092915050565b7f676c6f62616c20696e646578206973206f7574206f6620626f756e6421000000600082015250565b60006114b2601d83610e14565b91506114bd8261147c565b602082019050919050565b600060208201905081810360008301526114e1816114a5565b9050919050565b7f6f776e657220717565727920666f72206e6f6e2d6578697374656e7420746f6b60008201527f656e000000000000000000000000000000000000000000000000000000000000602082015250565b6000611544602283610e14565b915061154f826114e8565b604082019050919050565b6000602082019050818103600083015261157381611537565b9050919050565b600081905092915050565b600061159082610e09565b61159a818561157a565b93506115aa818560208601610e25565b80840191505092915050565b60006115c28284611585565b915081905092915050565b7f4572726f72202d206b727970746f4269726420616c726561647920657869737460008201527f7300000000000000000000000000000000000000000000000000000000000000602082015250565b6000611629602183610e14565b9150611634826115cd565b604082019050919050565b600060208201905081810360008301526116588161161c565b9050919050565b7f4e487b7100000000000000000000000000000000000000000000000000000000600052601160045260246000fd5b600061169982610f36565b91506116a483610f36565b9250828210156116b7576116b661165f565b5b828203905092915050565b7f4552433732313a6d696e74696e6720746f20746865207a65726f20616464726560008201527f7373000000000000000000000000000000000000000000000000000000000000602082015250565b600061171e602283610e14565b9150611729826116c2565b604082019050919050565b6000602082019050818103600083015261174d81611711565b9050919050565b7f4552433732313a746f6b656e20616c7265616479206d696e7465640000000000600082015250565b600061178a601b83610e14565b915061179582611754565b602082019050919050565b600060208201905081810360008301526117b98161177d565b9050919050565b60006117cb82610f36565b91506117d683610f36565b9250827fffffffffffffffffffffffffffffffffffffffffffffffffffffffffffffffff0382111561180b5761180a61165f565b5b82820190509291505056fea2646970667358221220612116869506d698cfbc62129cf2fffd6e3715d4d778d0d2fa59a74c4d4ea67864736f6c634300080c0033",
  "immutableReferences": {},
  "source": "// SPDX-License-Identifier: MIT\r\npragma solidity ^0.8.0;\r\n\r\nimport './ERC721Connector.sol';\r\n\r\ncontract KryptoBird is ERC721Connector {\r\n\r\n    // array to store our nfts\r\n    // \r\n    string [] public kryptoBirdz;\r\n\r\n    // \r\n    mapping(string => bool) _kryptoBirdzExists;\r\n\r\n    // \r\n    function mint(string memory _kryptoBird) public {\r\n\r\n        // \r\n        require(!_kryptoBirdzExists[_kryptoBird],\r\n        'Error - kryptoBird already exists');\r\n        // this is deprecated - uint _id = KryptoBirdz.push(_kryptoBird);\r\n        // push\r\n        kryptoBirdz.push(_kryptoBird);\r\n        // id=0id\r\n        uint _id = kryptoBirdz.length - 1;\r\n\r\n        // .push no longer returns the length but a ref to the added element\r\n        // \r\n        _mint(msg.sender, _id);\r\n\r\n        // true\r\n        _kryptoBirdzExists[_kryptoBird] = true;\r\n\r\n    }\r\n\r\n    // constructor(string memory _name, string memory _symbol) ERC721Connector(_name, _symbol){\r\n    //     _name='KryptoBird';\r\n    //     _symbol='KBIRDZ';\r\n    // }\r\n    //  \r\n    constructor() ERC721Connector(\"KryptoBird\", \"KBIRDZ\"){}\r\n\r\n}\r\n\r\n\r\n/*\r\n\r\n// pragma solidity ^0.8.0;\r\n\r\n// import \"./ERC721Connector.sol\";\r\n\r\n// // abstract contract KryptoBird is ERC721Connector {\r\n//     // https://learnblockchain.cn/docs/solidity/contracts.html#abstract-contract\r\n\r\n// abstract contract KryptoBird is ERC721Connector {\r\n\r\n\r\n//     // array to store our nfts\r\n//     string[] public kryptoBirdz;\r\n\r\n//     mapping(string => bool) _kryptoBirdzExists;\r\n    \r\n//     function mint(string memory _kryptoBird) public {\r\n        \r\n//         require(!_kryptoBirdzExists[_kryptoBird], \r\n//             \"Error kryptoBird already exists\");\r\n\r\n//         // this is deprecated\r\n//         // uint _id = KryptoBirdz.push(_kryptoBird);\r\n//         // .push no longer returns the length but a ref to the added element\r\n       \r\n//         kryptoBirdz.push(_kryptoBird);\r\n//         uint _id = kryptoBirdz.length - 1;\r\n\r\n//         _mint(msg.sender, _id);\r\n\r\n//         _kryptoBirdzExists[_kryptoBird] = true;\r\n\r\n//     }\r\n\r\n\r\n//     constructor() ERC721Connector('KryptoBird','KBIRDZ')\r\n//     {}\r\n\r\n// }\r\n*/",
  "sourcePath": "C:\\Users\\Afire\\Documents\\ShareDocument\\github\\Solidity\\src\\contracts\\KryptoBirdz.sol",
  "compiler": {
    "name": "solc",
    "version": "0.8.12+commit.f00d7308.Emscripten.clang"
  },
  "schemaVersion": "3.4.5",
  "updatedAt": "2022-02-27T09:25:19.010Z",
  "networkType": "ethereum",
  "devdoc": {
    "kind": "dev",
    "methods": {
      "balanceOf(address)": {
        "details": "NFTs assigned to the zero address are considered invalid, and this  function throws for queries about the zero address.",
        "params": {
          "_owner": "An address for whom to query the balance"
        },
        "returns": {
          "_0": "The number of NFTs owned by `_owner`, possibly zero"
        }
      },
      "ownerOf(uint256)": {
        "details": "NFTs assigned to zero address are considered invalid, and queries  about them do throw.",
        "params": {
          "_tokenId": "The identifier for an NFT"
        },
        "returns": {
          "_0": "The address of the owner of the NFT"
        }
      },
      "totalSupply()": {
        "returns": {
          "_0": "A count of valid NFTs tracked by this contract, where each one of  them has an assigned and queryable owner not equal to the zero address"
        }
      }
    },
    "version": 1
  },
  "userdoc": {
    "kind": "user",
    "methods": {
      "balanceOf(address)": {
        "notice": "Count all NFTs assigned to an owner"
      },
      "ownerOf(uint256)": {
        "notice": "Find the owner of an NFT"
      },
      "totalSupply()": {
        "notice": "Count NFTs tracked by this contract"
      }
    },
    "version": 1
  }
}