{
  "contractName": "KryptoBird",
  "abi": [
    {
      "inputs": [],
      "stateMutability": "nonpayable",
      "type": "constructor"
    },
    {
      "anonymous": false,
      "inputs": [
        {
          "indexed": true,
          "internalType": "address",
          "name": "from",
          "type": "address"
        },
        {
          "indexed": true,
          "internalType": "address",
          "name": "to",
          "type": "address"
        },
        {
          "indexed": true,
          "internalType": "uint256",
          "name": "tokenId",
          "type": "uint256"
        }
      ],
      "name": "Transfer",
      "type": "event"
    },
    {
      "inputs": [
        {
          "internalType": "address",
          "name": "_owner",
          "type": "address"
        }
      ],
      "name": "balanceOf",
      "outputs": [
        {
          "internalType": "uint256",
          "name": "",
          "type": "uint256"
        }
      ],
      "stateMutability": "view",
      "type": "function",
      "constant": true
    },
    {
      "inputs": [
        {
          "internalType": "uint256",
          "name": "",
          "type": "uint256"
        }
      ],
      "name": "kryptoBirdz",
      "outputs": [
        {
          "internalType": "string",
          "name": "",
          "type": "string"
        }
      ],
      "stateMutability": "view",
      "type": "function",
      "constant": true
    },
    {
      "inputs": [],
      "name": "name",
      "outputs": [
        {
          "internalType": "string",
          "name": "",
          "type": "string"
        }
      ],
      "stateMutability": "view",
      "type": "function",
      "constant": true
    },
    {
      "inputs": [
        {
          "internalType": "uint256",
          "name": "_tokenId",
          "type": "uint256"
        }
      ],
      "name": "ownerOf",
      "outputs": [
        {
          "internalType": "address",
          "name": "",
          "type": "address"
        }
      ],
      "stateMutability": "view",
      "type": "function",
      "constant": true
    },
    {
      "inputs": [],
      "name": "symbol",
      "outputs": [
        {
          "internalType": "string",
          "name": "",
          "type": "string"
        }
      ],
      "stateMutability": "view",
      "type": "function",
      "constant": true
    },
    {
      "inputs": [
        {
          "internalType": "uint256",
          "name": "index",
          "type": "uint256"
        }
      ],
      "name": "tokenByIndex",
      "outputs": [
        {
          "internalType": "uint256",
          "name": "",
          "type": "uint256"
        }
      ],
      "stateMutability": "view",
      "type": "function",
      "constant": true
    },
    {
      "inputs": [
        {
          "internalType": "address",
          "name": "owner",
          "type": "address"
        },
        {
          "internalType": "uint256",
          "name": "index",
          "type": "uint256"
        }
      ],
      "name": "tokenOfOwnerByIndex",
      "outputs": [
        {
          "internalType": "uint256",
          "name": "",
          "type": "uint256"
        }
      ],
      "stateMutability": "view",
      "type": "function",
      "constant": true
    },
    {
      "inputs": [],
      "name": "totalSupply",
      "outputs": [
        {
          "internalType": "uint256",
          "name": "",
          "type": "uint256"
        }
      ],
      "stateMutability": "view",
      "type": "function",
      "constant": true
    },
    {
      "inputs": [
        {
          "internalType": "string",
          "name": "_kryptoBird",
          "type": "string"
        }
      ],
      "name": "mint",
      "outputs": [],
      "stateMutability": "nonpayable",
      "type": "function"
    }
  ],
  "bytecode": "0x60806040523480156200001157600080fd5b506040518060400160405280600a81526020017f4b727970746f42697264000000000000000000000000000000000000000000008152506040518060400160405280600681526020017f4b424952445a00000000000000000000000000000000000000000000000000008152508181816000908051906020019062000098929190620000bc565b508060019080519060200190620000b1929190620000bc565b5050505050620001d1565b828054620000ca906200019b565b90600052602060002090601f016020900481019282620000ee57600085556200013a565b82601f106200010957805160ff19168380011785556200013a565b828001600101855582156200013a579182015b82811115620001395782518255916020019190600101906200011c565b5b5090506200014991906200014d565b5090565b5b80821115620001685760008160009055506001016200014e565b5090565b7f4e487b7100000000000000000000000000000000000000000000000000000000600052602260045260246000fd5b60006002820490506001821680620001b457607f821691505b60208210811415620001cb57620001ca6200016c565b5b50919050565b6114b280620001e16000396000f3fe608060405234801561001057600080fd5b50600436106100935760003560e01c80636352211e116100665780636352211e1461013457806370a082311461016457806393ab6e561461019457806395d89b41146101c4578063d85d3d27146101e257610093565b806306fdde031461009857806318160ddd146100b65780632f745c59146100d45780634f6ccce714610104575b600080fd5b6100a06101fe565b6040516100ad9190610c6e565b60405180910390f35b6100be610290565b6040516100cb9190610ca9565b60405180910390f35b6100ee60048036038101906100e99190610d62565b61029d565b6040516100fb9190610ca9565b60405180910390f35b61011e60048036038101906101199190610da2565b61034d565b60405161012b9190610ca9565b60405180910390f35b61014e60048036038101906101499190610da2565b610425565b60405161015b9190610dde565b60405180910390f35b61017e60048036038101906101799190610df9565b6104d7565b60405161018b9190610ca9565b60405180910390f35b6101ae60048036038101906101a99190610da2565b61058f565b6040516101bb9190610c6e565b60405180910390f35b6101cc61063b565b6040516101d99190610c6e565b60405180910390f35b6101fc60048036038101906101f79190610f5b565b6106cd565b005b60606000805461020d90610fd3565b80601f016020809104026020016040519081016040528092919081815260200182805461023990610fd3565b80156102865780601f1061025b57610100808354040283529160200191610286565b820191906000526020600020905b81548152906001019060200180831161026957829003601f168201915b5050505050905090565b6000600480549050905090565b60006102a8836104d7565b82106102e9576040517f08c379a00000000000000000000000000000000000000000000000000000000081526004016102e090611051565b60405180910390fd5b600660008473ffffffffffffffffffffffffffffffffffffffff1673ffffffffffffffffffffffffffffffffffffffff168152602001908152602001600020828154811061033a57610339611071565b5b9060005260206000200154905092915050565b60003073ffffffffffffffffffffffffffffffffffffffff166318160ddd6040518163ffffffff1660e01b8152600401602060405180830381865afa15801561039a573d6000803e3d6000fd5b505050506040513d601f19601f820116820180604052508101906103be91906110b5565b82106103ff576040517f08c379a00000000000000000000000000000000000000000000000000000000081526004016103f69061112e565b60405180910390fd5b6004828154811061041357610412611071565b5b90600052602060002001549050919050565b6000806002600084815260200190815260200160002060009054906101000a900473ffffffffffffffffffffffffffffffffffffffff169050600073ffffffffffffffffffffffffffffffffffffffff168173ffffffffffffffffffffffffffffffffffffffff1614156104ce576040517f08c379a00000000000000000000000000000000000000000000000000000000081526004016104c5906111c0565b60405180910390fd5b80915050919050565b60008073ffffffffffffffffffffffffffffffffffffffff168273ffffffffffffffffffffffffffffffffffffffff161415610548576040517f08c379a000000000000000000000000000000000000000000000000000000000815260040161053f906111c0565b60405180910390fd5b600360008373ffffffffffffffffffffffffffffffffffffffff1673ffffffffffffffffffffffffffffffffffffffff168152602001908152602001600020549050919050565b6008818154811061059f57600080fd5b9060005260206000200160009150905080546105ba90610fd3565b80601f01602080910402602001604051908101604052809291908181526020018280546105e690610fd3565b80156106335780601f1061060857610100808354040283529160200191610633565b820191906000526020600020905b81548152906001019060200180831161061657829003601f168201915b505050505081565b60606001805461064a90610fd3565b80601f016020809104026020016040519081016040528092919081815260200182805461067690610fd3565b80156106c35780601f10610698576101008083540402835291602001916106c3565b820191906000526020600020905b8154815290600101906020018083116106a657829003601f168201915b5050505050905090565b6009816040516106dd919061121c565b908152602001604051809103902060009054906101000a900460ff1615610739576040517f08c379a0000000000000000000000000000000000000000000000000000000008152600401610730906112a5565b60405180910390fd5b600881908060018154018082558091505060019003906000526020600020016000909190919091509080519060200190610774929190610b32565b506000600160088054905061078991906112f4565b905061079533826107d0565b60016009836040516107a7919061121c565b908152602001604051809103902060006101000a81548160ff0219169083151502179055505050565b6107da82826107f1565b6107e3816109b3565b6107ed82826109fc565b5050565b600073ffffffffffffffffffffffffffffffffffffffff168273ffffffffffffffffffffffffffffffffffffffff161415610861576040517f08c379a00000000000000000000000000000000000000000000000000000000081526004016108589061139a565b60405180910390fd5b61086a81610ac0565b156108aa576040517f08c379a00000000000000000000000000000000000000000000000000000000081526004016108a190611406565b60405180910390fd5b816002600083815260200190815260200160002060006101000a81548173ffffffffffffffffffffffffffffffffffffffff021916908373ffffffffffffffffffffffffffffffffffffffff1602179055506001600360008473ffffffffffffffffffffffffffffffffffffffff1673ffffffffffffffffffffffffffffffffffffffff168152602001908152602001600020600082825461094c9190611426565b92505081905550808273ffffffffffffffffffffffffffffffffffffffff16600073ffffffffffffffffffffffffffffffffffffffff167fddf252ad1be2c89b69c2b068fc378daa952ba7f163c4a11628f55a4df523b3ef60405160405180910390a45050565b6004805490506005600083815260200190815260200160002081905550600481908060018154018082558091505060019003906000526020600020016000909190919091505550565b600660008373ffffffffffffffffffffffffffffffffffffffff1673ffffffffffffffffffffffffffffffffffffffff168152602001908152602001600020805490506007600083815260200190815260200160002081905550600660008373ffffffffffffffffffffffffffffffffffffffff1673ffffffffffffffffffffffffffffffffffffffff1681526020019081526020016000208190806001815401808255809150506001900390600052602060002001600090919091909150555050565b6000806002600084815260200190815260200160002060009054906101000a900473ffffffffffffffffffffffffffffffffffffffff169050600073ffffffffffffffffffffffffffffffffffffffff168173ffffffffffffffffffffffffffffffffffffffff161415915050919050565b828054610b3e90610fd3565b90600052602060002090601f016020900481019282610b605760008555610ba7565b82601f10610b7957805160ff1916838001178555610ba7565b82800160010185558215610ba7579182015b82811115610ba6578251825591602001919060010190610b8b565b5b509050610bb49190610bb8565b5090565b5b80821115610bd1576000816000905550600101610bb9565b5090565b600081519050919050565b600082825260208201905092915050565b60005b83811015610c0f578082015181840152602081019050610bf4565b83811115610c1e576000848401525b50505050565b6000601f19601f8301169050919050565b6000610c4082610bd5565b610c4a8185610be0565b9350610c5a818560208601610bf1565b610c6381610c24565b840191505092915050565b60006020820190508181036000830152610c888184610c35565b905092915050565b6000819050919050565b610ca381610c90565b82525050565b6000602082019050610cbe6000830184610c9a565b92915050565b6000604051905090565b600080fd5b600080fd5b600073ffffffffffffffffffffffffffffffffffffffff82169050919050565b6000610d0382610cd8565b9050919050565b610d1381610cf8565b8114610d1e57600080fd5b50565b600081359050610d3081610d0a565b92915050565b610d3f81610c90565b8114610d4a57600080fd5b50565b600081359050610d5c81610d36565b92915050565b60008060408385031215610d7957610d78610cce565b5b6000610d8785828601610d21565b9250506020610d9885828601610d4d565b9150509250929050565b600060208284031215610db857610db7610cce565b5b6000610dc684828501610d4d565b91505092915050565b610dd881610cf8565b82525050565b6000602082019050610df36000830184610dcf565b92915050565b600060208284031215610e0f57610e0e610cce565b5b6000610e1d84828501610d21565b91505092915050565b600080fd5b600080fd5b7f4e487b7100000000000000000000000000000000000000000000000000000000600052604160045260246000fd5b610e6882610c24565b810181811067ffffffffffffffff82111715610e8757610e86610e30565b5b80604052505050565b6000610e9a610cc4565b9050610ea68282610e5f565b919050565b600067ffffffffffffffff821115610ec657610ec5610e30565b5b610ecf82610c24565b9050602081019050919050565b82818337600083830152505050565b6000610efe610ef984610eab565b610e90565b905082815260208101848484011115610f1a57610f19610e2b565b5b610f25848285610edc565b509392505050565b600082601f830112610f4257610f41610e26565b5b8135610f52848260208601610eeb565b91505092915050565b600060208284031215610f7157610f70610cce565b5b600082013567ffffffffffffffff811115610f8f57610f8e610cd3565b5b610f9b84828501610f2d565b91505092915050565b7f4e487b7100000000000000000000000000000000000000000000000000000000600052602260045260246000fd5b60006002820490506001821680610feb57607f821691505b60208210811415610fff57610ffe610fa4565b5b50919050565b7f6f776e657220696e646578206973206f7574206f6620626f756e642100000000600082015250565b600061103b601c83610be0565b915061104682611005565b602082019050919050565b6000602082019050818103600083015261106a8161102e565b9050919050565b7f4e487b7100000000000000000000000000000000000000000000000000000000600052603260045260246000fd5b6000815190506110af81610d36565b92915050565b6000602082840312156110cb576110ca610cce565b5b60006110d9848285016110a0565b91505092915050565b7f676c6f62616c20696e646578206973206f7574206f6620626f756e6421000000600082015250565b6000611118601d83610be0565b9150611123826110e2565b602082019050919050565b600060208201905081810360008301526111478161110b565b9050919050565b7f6f776e657220717565727920666f72206e6f6e2d6578697374656e7420746f6b60008201527f656e000000000000000000000000000000000000000000000000000000000000602082015250565b60006111aa602283610be0565b91506111b58261114e565b604082019050919050565b600060208201905081810360008301526111d98161119d565b9050919050565b600081905092915050565b60006111f682610bd5565b61120081856111e0565b9350611210818560208601610bf1565b80840191505092915050565b600061122882846111eb565b915081905092915050565b7f4572726f72202d206b727970746f4269726420616c726561647920657869737460008201527f7300000000000000000000000000000000000000000000000000000000000000602082015250565b600061128f602183610be0565b915061129a82611233565b604082019050919050565b600060208201905081810360008301526112be81611282565b9050919050565b7f4e487b7100000000000000000000000000000000000000000000000000000000600052601160045260246000fd5b60006112ff82610c90565b915061130a83610c90565b92508282101561131d5761131c6112c5565b5b828203905092915050565b7f4552433732313a6d696e74696e6720746f20746865207a65726f20616464726560008201527f7373000000000000000000000000000000000000000000000000000000000000602082015250565b6000611384602283610be0565b915061138f82611328565b604082019050919050565b600060208201905081810360008301526113b381611377565b9050919050565b7f4552433732313a746f6b656e20616c7265616479206d696e7465640000000000600082015250565b60006113f0601b83610be0565b91506113fb826113ba565b602082019050919050565b6000602082019050818103600083015261141f816113e3565b9050919050565b600061143182610c90565b915061143c83610c90565b9250827fffffffffffffffffffffffffffffffffffffffffffffffffffffffffffffffff03821115611471576114706112c5565b5b82820190509291505056fea26469706673582212206acad456a31b1b21dff34212e818db87954d1a43b078087c5999c8d34f76765464736f6c634300080c0033",
  "immutableReferences": {},
  "source": "// SPDX-License-Identifier: MIT\r\npragma solidity ^0.8.0;\r\n\r\nimport './ERC721Connector.sol';\r\n\r\ncontract KryptoBird is ERC721Connector {\r\n\r\n    // array to store our nfts\r\n    // \r\n    string [] public kryptoBirdz;\r\n\r\n    // \r\n    mapping(string => bool) _kryptoBirdzExists;\r\n\r\n    // \r\n    function mint(string memory _kryptoBird) public {\r\n\r\n        // \r\n        require(!_kryptoBirdzExists[_kryptoBird],\r\n        'Error - kryptoBird already exists');\r\n        // this is deprecated - uint _id = KryptoBirdz.push(_kryptoBird);\r\n        // push\r\n        kryptoBirdz.push(_kryptoBird);\r\n        // id=0id\r\n        uint _id = kryptoBirdz.length - 1;\r\n\r\n        // .push no longer returns the length but a ref to the added element\r\n        // \r\n        _mint(msg.sender, _id);\r\n\r\n        // true\r\n        _kryptoBirdzExists[_kryptoBird] = true;\r\n\r\n    }\r\n\r\n    // constructor(string memory _name, string memory _symbol) ERC721Connector(_name, _symbol){\r\n    //     _name='KryptoBird';\r\n    //     _symbol='KBIRDZ';\r\n    // }\r\n    //  \r\n    constructor() ERC721Connector(\"KryptoBird\", \"KBIRDZ\"){}\r\n\r\n}\r\n\r\n\r\n/*\r\n\r\n// pragma solidity ^0.8.0;\r\n\r\n// import \"./ERC721Connector.sol\";\r\n\r\n// // abstract contract KryptoBird is ERC721Connector {\r\n//     // https://learnblockchain.cn/docs/solidity/contracts.html#abstract-contract\r\n\r\n// abstract contract KryptoBird is ERC721Connector {\r\n\r\n\r\n//     // array to store our nfts\r\n//     string[] public kryptoBirdz;\r\n\r\n//     mapping(string => bool) _kryptoBirdzExists;\r\n    \r\n//     function mint(string memory _kryptoBird) public {\r\n        \r\n//         require(!_kryptoBirdzExists[_kryptoBird], \r\n//             \"Error kryptoBird already exists\");\r\n\r\n//         // this is deprecated\r\n//         // uint _id = KryptoBirdz.push(_kryptoBird);\r\n//         // .push no longer returns the length but a ref to the added element\r\n       \r\n//         kryptoBirdz.push(_kryptoBird);\r\n//         uint _id = kryptoBirdz.length - 1;\r\n\r\n//         _mint(msg.sender, _id);\r\n\r\n//         _kryptoBirdzExists[_kryptoBird] = true;\r\n\r\n//     }\r\n\r\n\r\n//     constructor() ERC721Connector('KryptoBird','KBIRDZ')\r\n//     {}\r\n\r\n// }\r\n*/",
  "sourcePath": "C:\\Users\\Afire\\Documents\\ShareDocument\\github\\nftLearning\\Learn01\\nft-marketplace-starter-kit-main\\src\\contracts\\KryptoBirdz.sol",
  "compiler": {
    "name": "solc",
    "version": "0.8.12+commit.f00d7308.Emscripten.clang"
  },
  "schemaVersion": "3.4.5",
  "updatedAt": "2022-02-26T10:41:14.379Z",
  "networkType": "ethereum",
  "devdoc": {
    "kind": "dev",
    "methods": {
      "balanceOf(address)": {
        "details": "NFTs assigned to the zero address are considered invalid, and this  function throws for queries about the zero address.",
        "params": {
          "_owner": "An address for whom to query the balance"
        },
        "returns": {
          "_0": "The number of NFTs owned by `_owner`, possibly zero"
        }
      },
      "ownerOf(uint256)": {
        "details": "NFTs assigned to zero address are considered invalid, and queries  about them do throw.",
        "params": {
          "_tokenId": "The identifier for an NFT"
        },
        "returns": {
          "_0": "The address of the owner of the NFT"
        }
      },
      "totalSupply()": {
        "returns": {
          "_0": "A count of valid NFTs tracked by this contract, where each one of  them has an assigned and queryable owner not equal to the zero address"
        }
      }
    },
    "version": 1
  },
  "userdoc": {
    "kind": "user",
    "methods": {
      "balanceOf(address)": {
        "notice": "Count all NFTs assigned to an owner"
      },
      "ownerOf(uint256)": {
        "notice": "Find the owner of an NFT"
      },
      "totalSupply()": {
        "notice": "Count NFTs tracked by this contract"
      }
    },
    "version": 1
  }
}